{
  "contractName": "Feed4Cloud",
  "abi": [
    {
      "inputs": [
        {
          "internalType": "uint256",
          "name": "",
          "type": "uint256"
        }
      ],
      "name": "allRatings",
      "outputs": [
        {
          "internalType": "uint256",
          "name": "serviceId",
          "type": "uint256"
        },
        {
          "internalType": "address",
          "name": "userId",
          "type": "address"
        },
        {
          "internalType": "uint256",
          "name": "rating",
          "type": "uint256"
        },
        {
          "internalType": "uint256",
          "name": "timestamp",
          "type": "uint256"
        }
      ],
      "stateMutability": "view",
      "type": "function",
      "constant": true
    },
    {
      "inputs": [
        {
          "internalType": "address",
          "name": "",
          "type": "address"
        },
        {
          "internalType": "uint256",
          "name": "",
          "type": "uint256"
        }
      ],
      "name": "serviceIdRatings",
      "outputs": [
        {
          "internalType": "uint256",
          "name": "serviceId",
          "type": "uint256"
        },
        {
          "internalType": "address",
          "name": "userId",
          "type": "address"
        },
        {
          "internalType": "uint256",
          "name": "rating",
          "type": "uint256"
        },
        {
          "internalType": "uint256",
          "name": "timestamp",
          "type": "uint256"
        }
      ],
      "stateMutability": "view",
      "type": "function",
      "constant": true
    },
    {
      "inputs": [
        {
          "internalType": "uint256",
          "name": "",
          "type": "uint256"
        },
        {
          "internalType": "uint256",
          "name": "",
          "type": "uint256"
        }
      ],
      "name": "serviceRatings",
      "outputs": [
        {
          "internalType": "uint256",
          "name": "serviceId",
          "type": "uint256"
        },
        {
          "internalType": "address",
          "name": "userId",
          "type": "address"
        },
        {
          "internalType": "uint256",
          "name": "rating",
          "type": "uint256"
        },
        {
          "internalType": "uint256",
          "name": "timestamp",
          "type": "uint256"
        }
      ],
      "stateMutability": "view",
      "type": "function",
      "constant": true
    },
    {
      "inputs": [
        {
          "internalType": "address",
          "name": "",
          "type": "address"
        },
        {
          "internalType": "uint256",
          "name": "",
          "type": "uint256"
        }
      ],
      "name": "userRatings",
      "outputs": [
        {
          "internalType": "uint256",
          "name": "serviceId",
          "type": "uint256"
        },
        {
          "internalType": "address",
          "name": "userId",
          "type": "address"
        },
        {
          "internalType": "uint256",
          "name": "rating",
          "type": "uint256"
        },
        {
          "internalType": "uint256",
          "name": "timestamp",
          "type": "uint256"
        }
      ],
      "stateMutability": "view",
      "type": "function",
      "constant": true
    },
    {
      "inputs": [
        {
          "internalType": "uint256",
          "name": "serviceId",
          "type": "uint256"
        },
        {
          "internalType": "uint256",
          "name": "rating",
          "type": "uint256"
        }
      ],
      "name": "setRating",
      "outputs": [],
      "stateMutability": "nonpayable",
      "type": "function"
    },
    {
      "inputs": [],
      "name": "getRatings",
      "outputs": [
        {
          "components": [
            {
              "internalType": "uint256",
              "name": "serviceId",
              "type": "uint256"
            },
            {
              "internalType": "address",
              "name": "userId",
              "type": "address"
            },
            {
              "internalType": "uint256",
              "name": "rating",
              "type": "uint256"
            },
            {
              "internalType": "uint256",
              "name": "timestamp",
              "type": "uint256"
            }
          ],
          "internalType": "struct Feed4Cloud.Rating[]",
          "name": "",
          "type": "tuple[]"
        }
      ],
      "stateMutability": "view",
      "type": "function",
      "constant": true
    },
    {
      "inputs": [
        {
          "internalType": "address",
          "name": "userId",
          "type": "address"
        }
      ],
      "name": "getUserRatings",
      "outputs": [
        {
          "components": [
            {
              "internalType": "uint256",
              "name": "serviceId",
              "type": "uint256"
            },
            {
              "internalType": "address",
              "name": "userId",
              "type": "address"
            },
            {
              "internalType": "uint256",
              "name": "rating",
              "type": "uint256"
            },
            {
              "internalType": "uint256",
              "name": "timestamp",
              "type": "uint256"
            }
          ],
          "internalType": "struct Feed4Cloud.Rating[]",
          "name": "",
          "type": "tuple[]"
        }
      ],
      "stateMutability": "view",
      "type": "function",
      "constant": true
    },
    {
      "inputs": [
        {
          "internalType": "address",
          "name": "userId",
          "type": "address"
        },
        {
          "internalType": "uint256",
          "name": "serviceId",
          "type": "uint256"
        }
      ],
      "name": "getAverageUserRating",
      "outputs": [
        {
          "internalType": "uint256",
          "name": "",
          "type": "uint256"
        }
      ],
      "stateMutability": "view",
      "type": "function",
      "constant": true
    },
    {
      "inputs": [
        {
          "internalType": "uint256",
          "name": "serviceId",
          "type": "uint256"
        }
      ],
      "name": "getServiceRatings",
      "outputs": [
        {
          "components": [
            {
              "internalType": "uint256",
              "name": "serviceId",
              "type": "uint256"
            },
            {
              "internalType": "address",
              "name": "userId",
              "type": "address"
            },
            {
              "internalType": "uint256",
              "name": "rating",
              "type": "uint256"
            },
            {
              "internalType": "uint256",
              "name": "timestamp",
              "type": "uint256"
            }
          ],
          "internalType": "struct Feed4Cloud.Rating[]",
          "name": "",
          "type": "tuple[]"
        }
      ],
      "stateMutability": "view",
      "type": "function",
      "constant": true
    },
    {
      "inputs": [
        {
          "internalType": "address",
          "name": "userId",
          "type": "address"
        }
      ],
      "name": "getLatestUserRating",
      "outputs": [
        {
          "components": [
            {
              "internalType": "uint256",
              "name": "serviceId",
              "type": "uint256"
            },
            {
              "internalType": "address",
              "name": "userId",
              "type": "address"
            },
            {
              "internalType": "uint256",
              "name": "rating",
              "type": "uint256"
            },
            {
              "internalType": "uint256",
              "name": "timestamp",
              "type": "uint256"
            }
          ],
          "internalType": "struct Feed4Cloud.Rating",
          "name": "",
          "type": "tuple"
        }
      ],
      "stateMutability": "view",
      "type": "function",
      "constant": true
    },
    {
      "inputs": [
        {
          "internalType": "address",
          "name": "userId",
          "type": "address"
        }
      ],
      "name": "getOnlyTheLatestUserRating",
      "outputs": [
        {
          "internalType": "uint256",
          "name": "",
          "type": "uint256"
        }
      ],
      "stateMutability": "view",
      "type": "function",
      "constant": true
    },
    {
      "inputs": [
        {
          "internalType": "uint256",
          "name": "serviceId",
          "type": "uint256"
        }
      ],
      "name": "getLatestServiceRating",
      "outputs": [
        {
          "components": [
            {
              "internalType": "uint256",
              "name": "serviceId",
              "type": "uint256"
            },
            {
              "internalType": "address",
              "name": "userId",
              "type": "address"
            },
            {
              "internalType": "uint256",
              "name": "rating",
              "type": "uint256"
            },
            {
              "internalType": "uint256",
              "name": "timestamp",
              "type": "uint256"
            }
          ],
          "internalType": "struct Feed4Cloud.Rating",
          "name": "",
          "type": "tuple"
        }
      ],
      "stateMutability": "view",
      "type": "function",
      "constant": true
    },
    {
      "inputs": [
        {
          "internalType": "uint256",
          "name": "serviceId",
          "type": "uint256"
        }
      ],
      "name": "getOnlyTheLatestServiceRating",
      "outputs": [
        {
          "internalType": "uint256",
          "name": "",
          "type": "uint256"
        }
      ],
      "stateMutability": "view",
      "type": "function",
      "constant": true
    },
    {
      "inputs": [
        {
          "internalType": "address",
          "name": "userId",
          "type": "address"
        }
      ],
      "name": "getLatestServiceId",
      "outputs": [
        {
          "internalType": "uint256",
          "name": "",
          "type": "uint256"
        }
      ],
      "stateMutability": "view",
      "type": "function",
      "constant": true
    }
  ],
  "bytecode": "0x608060405234801561001057600080fd5b50611ba6806100206000396000f3fe608060405234801561001057600080fd5b50600436106100ea5760003560e01c8063cbc1e4291161008c578063e35b2a1c11610066578063e35b2a1c146102b5578063e566037f146102e5578063f50336f914610315578063f748c21314610345576100ea565b8063cbc1e42914610222578063d5d9d61314610255578063d7049d5214610285576100ea565b80638cbdd6bd116100c85780638cbdd6bd1461016e578063b31e97a91461018c578063be001f6f146101bc578063c7e0e232146101ef576100ea565b8063257ec255146100ef5780634792c36c1461011f578063480e9ffc1461013b575b600080fd5b610109600480360381019061010491906115e7565b610375565b6040516101169190611636565b60405180910390f35b61013960048036038101906101349190611651565b61055d565b005b61015560048036038101906101509190611651565b610874565b60405161016594939291906116a0565b60405180910390f35b6101766108e1565b6040516101839190611807565b60405180910390f35b6101a660048036038101906101a19190611829565b6109b4565b6040516101b39190611636565b60405180910390f35b6101d660048036038101906101d191906115e7565b610b0e565b6040516101e694939291906116a0565b60405180910390f35b61020960048036038101906102049190611829565b610b7b565b60405161021994939291906116a0565b60405180910390f35b61023c600480360381019061023791906115e7565b610bdb565b60405161024c94939291906116a0565b60405180910390f35b61026f600480360381019061026a9190611856565b610c48565b60405161027c9190611636565b60405180910390f35b61029f600480360381019061029a9190611856565b610dce565b6040516102ac91906118d8565b60405180910390f35b6102cf60048036038101906102ca9190611829565b610f57565b6040516102dc9190611807565b60405180910390f35b6102ff60048036038101906102fa9190611829565b611096565b60405161030c91906118d8565b60405180910390f35b61032f600480360381019061032a9190611856565b6111f3565b60405161033c9190611807565b60405180910390f35b61035f600480360381019061035a9190611856565b61138a565b60405161036c9190611636565b60405180910390f35b600080600160008573ffffffffffffffffffffffffffffffffffffffff1673ffffffffffffffffffffffffffffffffffffffff16815260200190815260200160002080549050116103fb576040517f08c379a00000000000000000000000000000000000000000000000000000000081526004016103f290611950565b60405180910390fd5b60008060005b600160008773ffffffffffffffffffffffffffffffffffffffff1673ffffffffffffffffffffffffffffffffffffffff168152602001908152602001600020805490508110156105465784600160008873ffffffffffffffffffffffffffffffffffffffff1673ffffffffffffffffffffffffffffffffffffffff168152602001908152602001600020828154811061049d5761049c611970565b5b9060005260206000209060040201600001540361053357600160008773ffffffffffffffffffffffffffffffffffffffff1673ffffffffffffffffffffffffffffffffffffffff168152602001908152602001600020818154811061050557610504611970565b5b9060005260206000209060040201600201548361052291906119ce565b9250818061052f90611a02565b9250505b808061053e90611a02565b915050610401565b5080826105539190611a79565b9250505092915050565b600060405180608001604052808481526020013373ffffffffffffffffffffffffffffffffffffffff168152602001838152602001428152509050600160003373ffffffffffffffffffffffffffffffffffffffff1673ffffffffffffffffffffffffffffffffffffffff1681526020019081526020016000208190806001815401808255809150506001900390600052602060002090600402016000909190919091506000820151816000015560208201518160010160006101000a81548173ffffffffffffffffffffffffffffffffffffffff021916908373ffffffffffffffffffffffffffffffffffffffff16021790555060408201518160020155606082015181600301555050600260008481526020019081526020016000208190806001815401808255809150506001900390600052602060002090600402016000909190919091506000820151816000015560208201518160010160006101000a81548173ffffffffffffffffffffffffffffffffffffffff021916908373ffffffffffffffffffffffffffffffffffffffff16021790555060408201518160020155606082015181600301555050600360003373ffffffffffffffffffffffffffffffffffffffff1673ffffffffffffffffffffffffffffffffffffffff1681526020019081526020016000208190806001815401808255809150506001900390600052602060002090600402016000909190919091506000820151816000015560208201518160010160006101000a81548173ffffffffffffffffffffffffffffffffffffffff021916908373ffffffffffffffffffffffffffffffffffffffff1602179055506040820151816002015560608201518160030155505060008190806001815401808255809150506001900390600052602060002090600402016000909190919091506000820151816000015560208201518160010160006101000a81548173ffffffffffffffffffffffffffffffffffffffff021916908373ffffffffffffffffffffffffffffffffffffffff16021790555060408201518160020155606082015181600301555050505050565b6002602052816000526040600020818154811061089057600080fd5b9060005260206000209060040201600091509150508060000154908060010160009054906101000a900473ffffffffffffffffffffffffffffffffffffffff16908060020154908060030154905084565b60606000805480602002602001604051908101604052809291908181526020016000905b828210156109ab5783829060005260206000209060040201604051806080016040529081600082015481526020016001820160009054906101000a900473ffffffffffffffffffffffffffffffffffffffff1673ffffffffffffffffffffffffffffffffffffffff1673ffffffffffffffffffffffffffffffffffffffff1681526020016002820154815260200160038201548152505081526020019060010190610905565b50505050905090565b60008060026000848152602001908152602001600020805480602002602001604051908101604052809291908181526020016000905b82821015610a905783829060005260206000209060040201604051806080016040529081600082015481526020016001820160009054906101000a900473ffffffffffffffffffffffffffffffffffffffff1673ffffffffffffffffffffffffffffffffffffffff1673ffffffffffffffffffffffffffffffffffffffff16815260200160028201548152602001600382015481525050815260200190600101906109ea565b5050505090506000815111610ada576040517f08c379a0000000000000000000000000000000000000000000000000000000008152600401610ad190611b1c565b60405180910390fd5b8060018251610ae99190611b3c565b81518110610afa57610af9611970565b5b602002602001015160400151915050919050565b60016020528160005260406000208181548110610b2a57600080fd5b9060005260206000209060040201600091509150508060000154908060010160009054906101000a900473ffffffffffffffffffffffffffffffffffffffff16908060020154908060030154905084565b60008181548110610b8b57600080fd5b90600052602060002090600402016000915090508060000154908060010160009054906101000a900473ffffffffffffffffffffffffffffffffffffffff16908060020154908060030154905084565b60036020528160005260406000208181548110610bf757600080fd5b9060005260206000209060040201600091509150508060000154908060010160009054906101000a900473ffffffffffffffffffffffffffffffffffffffff16908060020154908060030154905084565b600080600360008473ffffffffffffffffffffffffffffffffffffffff1673ffffffffffffffffffffffffffffffffffffffff168152602001908152602001600020805480602002602001604051908101604052809291908181526020016000905b82821015610d505783829060005260206000209060040201604051806080016040529081600082015481526020016001820160009054906101000a900473ffffffffffffffffffffffffffffffffffffffff1673ffffffffffffffffffffffffffffffffffffffff1673ffffffffffffffffffffffffffffffffffffffff1681526020016002820154815260200160038201548152505081526020019060010190610caa565b5050505090506000815111610d9a576040517f08c379a0000000000000000000000000000000000000000000000000000000008152600401610d9190611b1c565b60405180910390fd5b8060018251610da99190611b3c565b81518110610dba57610db9611970565b5b602002602001015160000151915050919050565b610dd6611510565b6000600160008473ffffffffffffffffffffffffffffffffffffffff1673ffffffffffffffffffffffffffffffffffffffff168152602001908152602001600020805480602002602001604051908101604052809291908181526020016000905b82821015610edd5783829060005260206000209060040201604051806080016040529081600082015481526020016001820160009054906101000a900473ffffffffffffffffffffffffffffffffffffffff1673ffffffffffffffffffffffffffffffffffffffff1673ffffffffffffffffffffffffffffffffffffffff1681526020016002820154815260200160038201548152505081526020019060010190610e37565b5050505090506000815111610f27576040517f08c379a0000000000000000000000000000000000000000000000000000000008152600401610f1e90611950565b60405180910390fd5b8060018251610f369190611b3c565b81518110610f4757610f46611970565b5b6020026020010151915050919050565b60606000600260008481526020019081526020016000208054905011610fb2576040517f08c379a0000000000000000000000000000000000000000000000000000000008152600401610fa990611b1c565b60405180910390fd5b60026000838152602001908152602001600020805480602002602001604051908101604052809291908181526020016000905b8282101561108b5783829060005260206000209060040201604051806080016040529081600082015481526020016001820160009054906101000a900473ffffffffffffffffffffffffffffffffffffffff1673ffffffffffffffffffffffffffffffffffffffff1673ffffffffffffffffffffffffffffffffffffffff1681526020016002820154815260200160038201548152505081526020019060010190610fe5565b505050509050919050565b61109e611510565b600060026000848152602001908152602001600020805480602002602001604051908101604052809291908181526020016000905b828210156111795783829060005260206000209060040201604051806080016040529081600082015481526020016001820160009054906101000a900473ffffffffffffffffffffffffffffffffffffffff1673ffffffffffffffffffffffffffffffffffffffff1673ffffffffffffffffffffffffffffffffffffffff16815260200160028201548152602001600382015481525050815260200190600101906110d3565b50505050905060008151116111c3576040517f08c379a00000000000000000000000000000000000000000000000000000000081526004016111ba90611b1c565b60405180910390fd5b80600182516111d29190611b3c565b815181106111e3576111e2611970565b5b6020026020010151915050919050565b60606000600160008473ffffffffffffffffffffffffffffffffffffffff1673ffffffffffffffffffffffffffffffffffffffff168152602001908152602001600020805490501161127a576040517f08c379a000000000000000000000000000000000000000000000000000000000815260040161127190611950565b60405180910390fd5b600160008373ffffffffffffffffffffffffffffffffffffffff1673ffffffffffffffffffffffffffffffffffffffff168152602001908152602001600020805480602002602001604051908101604052809291908181526020016000905b8282101561137f5783829060005260206000209060040201604051806080016040529081600082015481526020016001820160009054906101000a900473ffffffffffffffffffffffffffffffffffffffff1673ffffffffffffffffffffffffffffffffffffffff1673ffffffffffffffffffffffffffffffffffffffff16815260200160028201548152602001600382015481525050815260200190600101906112d9565b505050509050919050565b600080600160008473ffffffffffffffffffffffffffffffffffffffff1673ffffffffffffffffffffffffffffffffffffffff168152602001908152602001600020805480602002602001604051908101604052809291908181526020016000905b828210156114925783829060005260206000209060040201604051806080016040529081600082015481526020016001820160009054906101000a900473ffffffffffffffffffffffffffffffffffffffff1673ffffffffffffffffffffffffffffffffffffffff1673ffffffffffffffffffffffffffffffffffffffff16815260200160028201548152602001600382015481525050815260200190600101906113ec565b50505050905060008151116114dc576040517f08c379a00000000000000000000000000000000000000000000000000000000081526004016114d390611950565b60405180910390fd5b80600182516114eb9190611b3c565b815181106114fc576114fb611970565b5b602002602001015160400151915050919050565b604051806080016040528060008152602001600073ffffffffffffffffffffffffffffffffffffffff16815260200160008152602001600081525090565b600080fd5b600073ffffffffffffffffffffffffffffffffffffffff82169050919050565b600061157e82611553565b9050919050565b61158e81611573565b811461159957600080fd5b50565b6000813590506115ab81611585565b92915050565b6000819050919050565b6115c4816115b1565b81146115cf57600080fd5b50565b6000813590506115e1816115bb565b92915050565b600080604083850312156115fe576115fd61154e565b5b600061160c8582860161159c565b925050602061161d858286016115d2565b9150509250929050565b611630816115b1565b82525050565b600060208201905061164b6000830184611627565b92915050565b600080604083850312156116685761166761154e565b5b6000611676858286016115d2565b9250506020611687858286016115d2565b9150509250929050565b61169a81611573565b82525050565b60006080820190506116b56000830187611627565b6116c26020830186611691565b6116cf6040830185611627565b6116dc6060830184611627565b95945050505050565b600081519050919050565b600082825260208201905092915050565b6000819050602082019050919050565b61171a816115b1565b82525050565b61172981611573565b82525050565b6080820160008201516117456000850182611711565b5060208201516117586020850182611720565b50604082015161176b6040850182611711565b50606082015161177e6060850182611711565b50505050565b6000611790838361172f565b60808301905092915050565b6000602082019050919050565b60006117b4826116e5565b6117be81856116f0565b93506117c983611701565b8060005b838110156117fa5781516117e18882611784565b97506117ec8361179c565b9250506001810190506117cd565b5085935050505092915050565b6000602082019050818103600083015261182181846117a9565b905092915050565b60006020828403121561183f5761183e61154e565b5b600061184d848285016115d2565b91505092915050565b60006020828403121561186c5761186b61154e565b5b600061187a8482850161159c565b91505092915050565b6080820160008201516118996000850182611711565b5060208201516118ac6020850182611720565b5060408201516118bf6040850182611711565b5060608201516118d26060850182611711565b50505050565b60006080820190506118ed6000830184611883565b92915050565b600082825260208201905092915050565b7f4e6f20726174696e677320666f756e6420666f72207468697320757365722e00600082015250565b600061193a601f836118f3565b915061194582611904565b602082019050919050565b600060208201905081810360008301526119698161192d565b9050919050565b7f4e487b7100000000000000000000000000000000000000000000000000000000600052603260045260246000fd5b7f4e487b7100000000000000000000000000000000000000000000000000000000600052601160045260246000fd5b60006119d9826115b1565b91506119e4836115b1565b92508282019050808211156119fc576119fb61199f565b5b92915050565b6000611a0d826115b1565b91507fffffffffffffffffffffffffffffffffffffffffffffffffffffffffffffffff8203611a3f57611a3e61199f565b5b600182019050919050565b7f4e487b7100000000000000000000000000000000000000000000000000000000600052601260045260246000fd5b6000611a84826115b1565b9150611a8f836115b1565b925082611a9f57611a9e611a4a565b5b828204905092915050565b7f4e6f20726174696e677320666f756e6420666f7220746869732073657276696360008201527f652e000000000000000000000000000000000000000000000000000000000000602082015250565b6000611b066022836118f3565b9150611b1182611aaa565b604082019050919050565b60006020820190508181036000830152611b3581611af9565b9050919050565b6000611b47826115b1565b9150611b52836115b1565b9250828203905081811115611b6a57611b6961199f565b5b9291505056fea264697066735822122050de14c56e3762e12e32ed4f7ceee8e5efa1a100885436b953abd2869f92712a64736f6c63430008120033",
  "immutableReferences": {},
  "source": "// SPDX-License-Identifier: GPL-3.0\r\npragma solidity ^0.8.18;\r\n\r\n\r\n\r\ncontract Feed4Cloud {\r\n\r\n\t\r\n    struct Rating {\r\n        uint serviceId;\r\n        address userId;\r\n        uint rating;\r\n        uint timestamp;\r\n    }\r\n\r\n\tRating[] public allRatings;\r\n\r\n    mapping (address => Rating[]) public userRatings;\r\n\tmapping (uint => Rating[]) public serviceRatings;\t\r\n\t//added for final function\r\n\tmapping(address => Rating[]) public serviceIdRatings;\r\n\r\n\r\n    function setRating(uint serviceId, uint rating) public {\r\n        Rating memory newRating = Rating({\r\n            serviceId: serviceId,\r\n            userId: msg.sender,\r\n            rating: rating,\r\n            timestamp: block.timestamp\r\n        });\r\n        userRatings[msg.sender].push(newRating);\r\n        serviceRatings[serviceId].push(newRating);\r\n\t\t//just added\r\n\t\tserviceIdRatings[msg.sender].push(newRating);\r\n\t\tallRatings.push(newRating);\r\n    }\r\n\r\n\t//getRatings() returns all recorded ratings\r\n\tfunction getRatings() external view returns (Rating[] memory) {\r\n\t\treturn allRatings;\r\n\t}\r\n\r\n\r\n\t//getUserRatings() returns the ratings assigned by a specific user with userId\r\n\tfunction getUserRatings(address userId) external view returns (Rating[] memory) {\r\n\t require(userRatings[userId].length > 0, \"No ratings found for this user.\");\r\n\t return userRatings[userId];\r\n\t}\r\n\r\n\r\n\t//getAverageUserRating() returns the average value of the ratings assigned by a specific user with userId\r\n    function getAverageUserRating(address userId, uint serviceId) external view returns (uint) {\r\n\t\trequire(userRatings[userId].length > 0, \"No ratings found for this user.\");\r\n\t\tuint total = 0;\r\n\t\tuint count = 0;\r\n\t\tfor (uint i = 0; i < userRatings[userId].length; i++) {\r\n\t\t\tif (userRatings[userId][i].serviceId == serviceId) {\r\n\t\t\t\ttotal += userRatings[userId][i].rating;\r\n\t\t\t\tcount++;\r\n\t\t\t}\r\n\t\t}\r\n\t\t\treturn total/count;\r\n     }\r\n\r\n\t /*\r\n\t //getAverageRatings() returns the average ratings of each user for a specific service\r\n\t function getAverageRatings(uint serviceId) public view returns (uint[][] memory) {\r\n\t\tuint[userRatings.length][2] memory avgUserRatings;\r\n\t\t for (uint i = 0; i < userRatings.length; i++) {\r\n\t\t\tavgUserRatings[i][0] = i;\r\n\t\t\tavgUserRatings[i][1] = getAverageUserRating(i,serviceId);\r\n\t\t}\r\n\r\n\t\treturn avgUserRatings;\r\n\t }\r\n\t */\r\n\r\n\t//getServiceRatings() returns the ratings assigned to a specific service with serviceId\r\n    function getServiceRatings(uint serviceId) public view returns (Rating[] memory) {\r\n\t\trequire(serviceRatings[serviceId].length > 0, \"No ratings found for this service.\");\r\n\t\treturn serviceRatings[serviceId];\r\n    }\r\n\r\n\t//getLatestUserRating returns the latest rating by a specific user with userId that has been recorded\r\n    function getLatestUserRating(address userId) public view returns (Rating memory) {\r\n\t\tRating[] memory userRatingsByUserId = userRatings[userId];\r\n\t\trequire( userRatingsByUserId.length > 0, \"No ratings found for this user.\");\r\n        return userRatingsByUserId[userRatingsByUserId.length-1];\r\n\t}\r\n\r\n\t//added to return only the latest rating without the extra information about the users\r\n\tfunction getOnlyTheLatestUserRating(address userId) public view returns (uint) {\r\n\t\tRating[] memory userRatingsByUserId = userRatings[userId];\r\n\t\trequire( userRatingsByUserId.length > 0, \"No ratings found for this user.\");\r\n        return userRatingsByUserId[userRatingsByUserId.length-1].rating;//vale .rating kai epistrefei uint\r\n\t}\r\n\r\n\t//getLatestServiceRating returns the latest rating for a specific service with serviceId that has been recorded\r\n    function getLatestServiceRating(uint serviceId) public view returns (Rating memory) {\r\n       Rating[] memory serviceRatingsByServiceId = serviceRatings[serviceId];\r\n\t   require(serviceRatingsByServiceId.length > 0, \"No ratings found for this service.\");\r\n\t   return serviceRatingsByServiceId[serviceRatingsByServiceId.length -1];\r\n\t}\r\n\r\n\t//added to return only the latest service rating without the extra information\r\n    function getOnlyTheLatestServiceRating(uint serviceId) public view returns (uint) {\r\n       Rating[] memory serviceRatingsByServiceId = serviceRatings[serviceId];\r\n\t   require(serviceRatingsByServiceId.length > 0, \"No ratings found for this service.\");\r\n\t   return serviceRatingsByServiceId[serviceRatingsByServiceId.length -1].rating;\r\n\t}\r\n\r\n\t//added to use in updateReputation function in Ratings_Composition\r\n\tfunction getLatestServiceId(address userId) public view returns(uint){\r\n\t\tRating[] memory serviceIdByUserId=serviceIdRatings[userId];\r\n\t\trequire(serviceIdByUserId.length > 0, \"No ratings found for this service.\");\r\n\t\treturn serviceIdByUserId[serviceIdByUserId.length-1].serviceId;\r\n\r\n\t}\r\n}\r\n\r\n",
  "sourcePath": "C:\\Users\\super\\Desktop\\feed4cloudProjects\\feed4cloud_weight_6\\contracts\\Feed4Cloud.sol",
  "compiler": {
    "name": "solc",
    "version": "0.8.18+commit.87f61d96.Emscripten.clang"
  },
  "schemaVersion": "3.4.14",
  "updatedAt": "2023-08-09T06:56:43.254Z",
  "networkType": "ethereum",
  "devdoc": {
    "kind": "dev",
    "methods": {},
    "version": 1
  },
  "userdoc": {
    "kind": "user",
    "methods": {},
    "version": 1
  }
}