{
  "contractName": "Notarization",
  "abi": [
    {
      "inputs": [],
      "stateMutability": "nonpayable",
      "type": "constructor"
    },
    {
      "anonymous": false,
      "inputs": [
        {
          "indexed": false,
          "internalType": "uint256",
          "name": "serviceid",
          "type": "uint256"
        },
        {
          "indexed": false,
          "internalType": "uint256",
          "name": "ratevalue",
          "type": "uint256"
        },
        {
          "indexed": false,
          "internalType": "uint256",
          "name": "time",
          "type": "uint256"
        }
      ],
      "name": "NewRate",
      "type": "event"
    },
    {
      "inputs": [
        {
          "internalType": "uint256",
          "name": "service_id",
          "type": "uint256"
        },
        {
          "internalType": "uint256",
          "name": "user_id",
          "type": "uint256"
        },
        {
          "internalType": "uint256",
          "name": "rate_value",
          "type": "uint256"
        },
        {
          "internalType": "uint256",
          "name": "timestamp",
          "type": "uint256"
        }
      ],
      "name": "setRate",
      "outputs": [],
      "stateMutability": "nonpayable",
      "type": "function"
    },
    {
      "inputs": [],
      "name": "getRateValue",
      "outputs": [
        {
          "internalType": "uint256",
          "name": "",
          "type": "uint256"
        }
      ],
      "stateMutability": "view",
      "type": "function"
    },
    {
      "inputs": [],
      "name": "getRateService",
      "outputs": [
        {
          "internalType": "uint256",
          "name": "",
          "type": "uint256"
        }
      ],
      "stateMutability": "view",
      "type": "function"
    },
    {
      "inputs": [],
      "name": "getRateTime",
      "outputs": [
        {
          "internalType": "uint256",
          "name": "",
          "type": "uint256"
        }
      ],
      "stateMutability": "view",
      "type": "function"
    }
  ],
  "bytecode": "0x608060405234801561001057600080fd5b506102b2806100206000396000f3fe608060405234801561001057600080fd5b506004361061004c5760003560e01c806345af1a1e146100515780634751549a1461006f578063a3d7a9e41461008d578063b74039fe146100a9575b600080fd5b6100596100c7565b6040516100669190610192565b60405180910390f35b6100776100d3565b6040516100849190610192565b60405180910390f35b6100a760048036038101906100a291906101de565b6100df565b005b6100b161016d565b6040516100be9190610192565b60405180910390f35b60008060030154905090565b60008060020154905090565b60405180608001604052808581526020018481526020018381526020018281525060008082015181600001556020820151816001015560408201518160020155606082015181600301559050507f4a08ca183b2c2a6aae30626528139fd09b2d9f211e4c27a9458b85aef4442ae284838360405161015f93929190610245565b60405180910390a150505050565b60008060000154905090565b6000819050919050565b61018c81610179565b82525050565b60006020820190506101a76000830184610183565b92915050565b600080fd5b6101bb81610179565b81146101c657600080fd5b50565b6000813590506101d8816101b2565b92915050565b600080600080608085870312156101f8576101f76101ad565b5b6000610206878288016101c9565b9450506020610217878288016101c9565b9350506040610228878288016101c9565b9250506060610239878288016101c9565b91505092959194509250565b600060608201905061025a6000830186610183565b6102676020830185610183565b6102746040830184610183565b94935050505056fea26469706673582212201e86b38cfe612ed3eff59a7e1f27a0c1e4b57d3b4e7299592f38b901b222398564736f6c63430008120033",
  "immutableReferences": {},
  "source": "// SPDX-License-Identifier: GPL-3.0\r\n\r\npragma solidity 0.8.18;\r\n\r\ncontract Notarization  {\r\n\r\n   \r\n\r\n    //Emitted when update function is called\r\n    //Smart contract events are a way for your contract to communicate that something happened on the blockchain to your app front-end, which can be 'listening' for certain events and take action when they happen.\r\n    event NewRate(uint serviceid, uint ratevalue, uint time);\r\n    \r\n\r\n    struct Rate {         \r\n        uint service_id;\r\n        uint user_id;\r\n        uint rate_value;\r\n        uint timestamp;\r\n    }\r\n\r\n    Rate rate;\r\n    function setRate(uint service_id, uint user_id, uint rate_value, uint timestamp) public {\r\n        rate = Rate(service_id,user_id,rate_value,timestamp);\r\n        emit NewRate(service_id, rate_value, timestamp);\r\n    }\r\n    function getRateValue() public view returns (uint) {\r\n        return rate.rate_value;\r\n    }\r\n    function getRateService() public view returns (uint) {\r\n        return rate.service_id;\r\n    }\r\n    function getRateTime() public view returns (uint) {\r\n        return rate.timestamp;\r\n    }\r\n\r\n    constructor() {\r\n        \r\n    }\r\n}",
  "sourcePath": "C:\\Users\\super\\Desktop\\feed4cloudProjects\\feed4cloud_weight_6\\contracts\\Notarization.sol",
  "compiler": {
    "name": "solc",
    "version": "0.8.18+commit.87f61d96.Emscripten.clang"
  },
  "schemaVersion": "3.4.14",
  "updatedAt": "2023-08-09T06:56:22.051Z",
  "devdoc": {
    "kind": "dev",
    "methods": {},
    "version": 1
  },
  "userdoc": {
    "kind": "user",
    "methods": {},
    "version": 1
  }
}