{
  "contractName": "RatingsAndComposition",
  "abi": [
    {
      "inputs": [
        {
          "internalType": "address",
          "name": "",
          "type": "address"
        }
      ],
      "name": "credibilRating",
      "outputs": [
        {
          "internalType": "uint256",
          "name": "",
          "type": "uint256"
        }
      ],
      "stateMutability": "view",
      "type": "function",
      "constant": true
    },
    {
      "inputs": [
        {
          "internalType": "address",
          "name": "",
          "type": "address"
        }
      ],
      "name": "credibilitySupervisor",
      "outputs": [
        {
          "internalType": "bool",
          "name": "",
          "type": "bool"
        }
      ],
      "stateMutability": "view",
      "type": "function",
      "constant": true
    },
    {
      "inputs": [
        {
          "internalType": "address",
          "name": "",
          "type": "address"
        }
      ],
      "name": "userCredibility",
      "outputs": [
        {
          "internalType": "uint256",
          "name": "",
          "type": "uint256"
        }
      ],
      "stateMutability": "view",
      "type": "function",
      "constant": true
    },
    {
      "inputs": [
        {
          "internalType": "address",
          "name": "",
          "type": "address"
        }
      ],
      "name": "userFakes",
      "outputs": [
        {
          "internalType": "uint256",
          "name": "",
          "type": "uint256"
        }
      ],
      "stateMutability": "view",
      "type": "function",
      "constant": true
    },
    {
      "inputs": [
        {
          "internalType": "address",
          "name": "",
          "type": "address"
        }
      ],
      "name": "userTotal",
      "outputs": [
        {
          "internalType": "uint256",
          "name": "",
          "type": "uint256"
        }
      ],
      "stateMutability": "view",
      "type": "function",
      "constant": true
    },
    {
      "inputs": [
        {
          "internalType": "address",
          "name": "supervisor",
          "type": "address"
        }
      ],
      "name": "setCredibilitySupervisor",
      "outputs": [
        {
          "internalType": "address",
          "name": "h",
          "type": "address"
        }
      ],
      "stateMutability": "nonpayable",
      "type": "function"
    },
    {
      "inputs": [
        {
          "internalType": "address",
          "name": "supervised",
          "type": "address"
        }
      ],
      "name": "setFakes",
      "outputs": [
        {
          "internalType": "uint256",
          "name": "x1",
          "type": "uint256"
        }
      ],
      "stateMutability": "nonpayable",
      "type": "function"
    },
    {
      "inputs": [
        {
          "internalType": "address",
          "name": "supervised",
          "type": "address"
        }
      ],
      "name": "getFakes",
      "outputs": [
        {
          "internalType": "uint256",
          "name": "x1",
          "type": "uint256"
        }
      ],
      "stateMutability": "view",
      "type": "function",
      "constant": true
    },
    {
      "inputs": [
        {
          "internalType": "address",
          "name": "supervised",
          "type": "address"
        }
      ],
      "name": "setTotal",
      "outputs": [
        {
          "internalType": "uint256",
          "name": "x1",
          "type": "uint256"
        }
      ],
      "stateMutability": "nonpayable",
      "type": "function"
    },
    {
      "inputs": [
        {
          "internalType": "address",
          "name": "supervised",
          "type": "address"
        }
      ],
      "name": "getTotal",
      "outputs": [
        {
          "internalType": "uint256",
          "name": "x1",
          "type": "uint256"
        }
      ],
      "stateMutability": "view",
      "type": "function",
      "constant": true
    },
    {
      "inputs": [
        {
          "internalType": "int256",
          "name": "punish",
          "type": "int256"
        },
        {
          "internalType": "address",
          "name": "supervised",
          "type": "address"
        }
      ],
      "name": "Credibility_rating",
      "outputs": [
        {
          "internalType": "uint256",
          "name": "b1",
          "type": "uint256"
        }
      ],
      "stateMutability": "nonpayable",
      "type": "function"
    },
    {
      "inputs": [
        {
          "internalType": "address",
          "name": "supervised",
          "type": "address"
        }
      ],
      "name": "getCredibilityRating",
      "outputs": [
        {
          "internalType": "uint256",
          "name": "b1",
          "type": "uint256"
        }
      ],
      "stateMutability": "view",
      "type": "function",
      "constant": true
    },
    {
      "inputs": [
        {
          "internalType": "address",
          "name": "supervised",
          "type": "address"
        }
      ],
      "name": "update_Credibility",
      "outputs": [
        {
          "internalType": "uint256",
          "name": "y",
          "type": "uint256"
        }
      ],
      "stateMutability": "nonpayable",
      "type": "function"
    },
    {
      "inputs": [
        {
          "internalType": "address",
          "name": "supervised",
          "type": "address"
        }
      ],
      "name": "getCredibility",
      "outputs": [
        {
          "internalType": "uint256",
          "name": "x",
          "type": "uint256"
        }
      ],
      "stateMutability": "view",
      "type": "function",
      "constant": true
    },
    {
      "inputs": [
        {
          "internalType": "address",
          "name": "supervised",
          "type": "address"
        },
        {
          "internalType": "uint256",
          "name": "rating",
          "type": "uint256"
        }
      ],
      "name": "update_Reputation",
      "outputs": [
        {
          "internalType": "uint256",
          "name": "t",
          "type": "uint256"
        }
      ],
      "stateMutability": "nonpayable",
      "type": "function"
    },
    {
      "inputs": [],
      "name": "getReputationScore",
      "outputs": [
        {
          "internalType": "uint256",
          "name": "x",
          "type": "uint256"
        }
      ],
      "stateMutability": "view",
      "type": "function",
      "constant": true
    }
  ],
  "bytecode": "0x608060405234801561001057600080fd5b50611326806100206000396000f3fe608060405234801561001057600080fd5b50600436106101005760003560e01c80638165226b11610097578063db0ac9aa11610066578063db0ac9aa14610333578063e5e666b114610363578063e601cf4414610393578063ebb6dad8146103c357610100565b80638165226b1461027357806390c4cc9f146102a35780639aca5c2d146102d3578063c50ca4fc1461030357610100565b80633045b81f116100d35780633045b81f146101c5578063410cb290146101f5578063423646ac1461022557806342dd5ab81461024357610100565b8063077438fa146101055780631cb2afe81461013557806323341446146101655780632c10e85114610195575b600080fd5b61011f600480360381019061011a9190611014565b6103f3565b60405161012c919061105a565b60405180910390f35b61014f600480360381019061014a9190611014565b6104f5565b60405161015c9190611084565b60405180910390f35b61017f600480360381019061017a9190611014565b610557565b60405161018c919061105a565b60405180910390f35b6101af60048036038101906101aa9190611014565b61056f565b6040516101bc919061105a565b60405180910390f35b6101df60048036038101906101da9190611014565b6105b8565b6040516101ec919061105a565b60405180910390f35b61020f600480360381019061020a9190611014565b6105d0565b60405161021c919061105a565b60405180910390f35b61022d6106d2565b60405161023a919061105a565b60405180910390f35b61025d60048036038101906102589190611014565b6106dc565b60405161026a919061105a565b60405180910390f35b61028d600480360381019061028891906110d5565b6106f4565b60405161029a919061105a565b60405180910390f35b6102bd60048036038101906102b89190611014565b6109ec565b6040516102ca9190611130565b60405180910390f35b6102ed60048036038101906102e89190611177565b610a0c565b6040516102fa919061105a565b60405180910390f35b61031d60048036038101906103189190611014565b610b67565b60405161032a919061105a565b60405180910390f35b61034d60048036038101906103489190611014565b610ebe565b60405161035a919061105a565b60405180910390f35b61037d60048036038101906103789190611014565b610f07565b60405161038a919061105a565b60405180910390f35b6103ad60048036038101906103a89190611014565b610f50565b6040516103ba919061105a565b60405180910390f35b6103dd60048036038101906103d89190611014565b610f68565b6040516103ea919061105a565b60405180910390f35b600033600360008273ffffffffffffffffffffffffffffffffffffffff1673ffffffffffffffffffffffffffffffffffffffff16815260200190815260200160002060009054906101000a900460ff1661044c57600080fd5b600161045784610ebe565b61046191906111e6565b600081905550600054600460008573ffffffffffffffffffffffffffffffffffffffff1673ffffffffffffffffffffffffffffffffffffffff16815260200190815260200160002081905550600460008473ffffffffffffffffffffffffffffffffffffffff1673ffffffffffffffffffffffffffffffffffffffff16815260200190815260200160002054915050919050565b60006001600360008473ffffffffffffffffffffffffffffffffffffffff1673ffffffffffffffffffffffffffffffffffffffff16815260200190815260200160002060006101000a81548160ff021916908315150217905550819050919050565b60056020528060005260406000206000915090505481565b6000600760008373ffffffffffffffffffffffffffffffffffffffff1673ffffffffffffffffffffffffffffffffffffffff168152602001908152602001600020549050919050565b60076020528060005260406000206000915090505481565b600033600360008273ffffffffffffffffffffffffffffffffffffffff1673ffffffffffffffffffffffffffffffffffffffff16815260200190815260200160002060009054906101000a900460ff1661062957600080fd5b600161063484610f68565b61063e91906111e6565b600181905550600154600660008573ffffffffffffffffffffffffffffffffffffffff1673ffffffffffffffffffffffffffffffffffffffff16815260200190815260200160002081905550600660008473ffffffffffffffffffffffffffffffffffffffff1673ffffffffffffffffffffffffffffffffffffffff16815260200190815260200160002054915050919050565b6000600254905090565b60046020528060005260406000206000915090505481565b6000808303610747576064600760008473ffffffffffffffffffffffffffffffffffffffff1673ffffffffffffffffffffffffffffffffffffffff16815260200190815260200160002081905550610839565b60006064600460008573ffffffffffffffffffffffffffffffffffffffff1673ffffffffffffffffffffffffffffffffffffffff16815260200190815260200160002054610795919061121a565b90506000600660008573ffffffffffffffffffffffffffffffffffffffff1673ffffffffffffffffffffffffffffffffffffffff16815260200190815260200160002054905080826107e7919061128b565b60646107f391906112bc565b600760008673ffffffffffffffffffffffffffffffffffffffff1673ffffffffffffffffffffffffffffffffffffffff1681526020019081526020016000208190555050505b6064600760008473ffffffffffffffffffffffffffffffffffffffff1673ffffffffffffffffffffffffffffffffffffffff1681526020019081526020016000205411156108cb576064600760008473ffffffffffffffffffffffffffffffffffffffff1673ffffffffffffffffffffffffffffffffffffffff168152602001908152602001600020819055506109a4565b6000600760008473ffffffffffffffffffffffffffffffffffffffff1673ffffffffffffffffffffffffffffffffffffffff16815260200190815260200160002054108061095857506000600760008473ffffffffffffffffffffffffffffffffffffffff1673ffffffffffffffffffffffffffffffffffffffff16815260200190815260200160002054145b156109a3576001600760008473ffffffffffffffffffffffffffffffffffffffff1673ffffffffffffffffffffffffffffffffffffffff168152602001908152602001600020819055505b5b600760008373ffffffffffffffffffffffffffffffffffffffff1673ffffffffffffffffffffffffffffffffffffffff16815260200190815260200160002054905092915050565b60036020528060005260406000206000915054906101000a900460ff1681565b600033600360008273ffffffffffffffffffffffffffffffffffffffff1673ffffffffffffffffffffffffffffffffffffffff16815260200190815260200160002060009054906101000a900460ff16610a6557600080fd5b82600560008673ffffffffffffffffffffffffffffffffffffffff1673ffffffffffffffffffffffffffffffffffffffff16815260200190815260200160002054610ab0919061121a565b600254600560008773ffffffffffffffffffffffffffffffffffffffff1673ffffffffffffffffffffffffffffffffffffffff168152602001908152602001600020546064610aff91906112bc565b610b09919061121a565b610b1391906111e6565b6002819055506064600254610b28919061128b565b60028190555060016002541015610b46576001600281905550610b5b565b60646002541115610b5a5760646002819055505b5b60025491505092915050565b600033600360008273ffffffffffffffffffffffffffffffffffffffff1673ffffffffffffffffffffffffffffffffffffffff16815260200190815260200160002060009054906101000a900460ff16610bc057600080fd5b6000600690506000600560008673ffffffffffffffffffffffffffffffffffffffff1673ffffffffffffffffffffffffffffffffffffffff1681526020019081526020016000205403610c53576032600560008673ffffffffffffffffffffffffffffffffffffffff1673ffffffffffffffffffffffffffffffffffffffff168152602001908152602001600020819055505b6000600760008673ffffffffffffffffffffffffffffffffffffffff1673ffffffffffffffffffffffffffffffffffffffff1681526020019081526020016000205482600a610ca291906112bc565b610cac919061121a565b600560008773ffffffffffffffffffffffffffffffffffffffff1673ffffffffffffffffffffffffffffffffffffffff1681526020019081526020016000205483610cf7919061121a565b610d0191906111e6565b9050600a81610d10919061128b565b600560008773ffffffffffffffffffffffffffffffffffffffff1673ffffffffffffffffffffffffffffffffffffffff168152602001908152602001600020819055506001600560008773ffffffffffffffffffffffffffffffffffffffff1673ffffffffffffffffffffffffffffffffffffffff168152602001908152602001600020541015610de5576001600560008773ffffffffffffffffffffffffffffffffffffffff1673ffffffffffffffffffffffffffffffffffffffff16815260200190815260200160002081905550610e74565b6064600560008773ffffffffffffffffffffffffffffffffffffffff1673ffffffffffffffffffffffffffffffffffffffff168152602001908152602001600020541115610e73576064600560008773ffffffffffffffffffffffffffffffffffffffff1673ffffffffffffffffffffffffffffffffffffffff168152602001908152602001600020819055505b5b600560008673ffffffffffffffffffffffffffffffffffffffff1673ffffffffffffffffffffffffffffffffffffffff168152602001908152602001600020549350505050919050565b6000600460008373ffffffffffffffffffffffffffffffffffffffff1673ffffffffffffffffffffffffffffffffffffffff168152602001908152602001600020549050919050565b6000600560008373ffffffffffffffffffffffffffffffffffffffff1673ffffffffffffffffffffffffffffffffffffffff168152602001908152602001600020549050919050565b60066020528060005260406000206000915090505481565b6000600660008373ffffffffffffffffffffffffffffffffffffffff1673ffffffffffffffffffffffffffffffffffffffff168152602001908152602001600020549050919050565b600080fd5b600073ffffffffffffffffffffffffffffffffffffffff82169050919050565b6000610fe182610fb6565b9050919050565b610ff181610fd6565b8114610ffc57600080fd5b50565b60008135905061100e81610fe8565b92915050565b60006020828403121561102a57611029610fb1565b5b600061103884828501610fff565b91505092915050565b6000819050919050565b61105481611041565b82525050565b600060208201905061106f600083018461104b565b92915050565b61107e81610fd6565b82525050565b60006020820190506110996000830184611075565b92915050565b6000819050919050565b6110b28161109f565b81146110bd57600080fd5b50565b6000813590506110cf816110a9565b92915050565b600080604083850312156110ec576110eb610fb1565b5b60006110fa858286016110c0565b925050602061110b85828601610fff565b9150509250929050565b60008115159050919050565b61112a81611115565b82525050565b60006020820190506111456000830184611121565b92915050565b61115481611041565b811461115f57600080fd5b50565b6000813590506111718161114b565b92915050565b6000806040838503121561118e5761118d610fb1565b5b600061119c85828601610fff565b92505060206111ad85828601611162565b9150509250929050565b7f4e487b7100000000000000000000000000000000000000000000000000000000600052601160045260246000fd5b60006111f182611041565b91506111fc83611041565b9250828201905080821115611214576112136111b7565b5b92915050565b600061122582611041565b915061123083611041565b925082820261123e81611041565b91508282048414831517611255576112546111b7565b5b5092915050565b7f4e487b7100000000000000000000000000000000000000000000000000000000600052601260045260246000fd5b600061129682611041565b91506112a183611041565b9250826112b1576112b061125c565b5b828204905092915050565b60006112c782611041565b91506112d283611041565b92508282039050818111156112ea576112e96111b7565b5b9291505056fea2646970667358221220b1701bb68ccfeed9e99392df8ae31ef6534e8dfc4da8b609007814cfd9e2d89364736f6c63430008120033",
  "immutableReferences": {},
  "source": "// SPDX-License-Identifier: GPL-3.0\r\npragma solidity ^0.8.18;\r\nimport \"./Feed4Cloud.sol\";\r\n\r\n\r\n\r\ncontract RatingsAndComposition{\r\n    //variables\r\n    uint fakes;\r\n    uint total;\r\n    uint ReputationScore; \r\n\r\n    mapping(address => bool) public credibilitySupervisor; //add the supervisor here\r\n    mapping(address =>uint) public userFakes;         //getfakes used to compute credibility\r\n    mapping(address =>uint) public userCredibility;    //credibility of specific user\r\n    mapping(address =>uint) public userTotal;         //getotal used to compute credibility\r\n    mapping(address => uint) public credibilRating;\r\n\r\n    modifier onlyCredibilitySupervisor(address _supervisor){\r\n        require(credibilitySupervisor[_supervisor]);\r\n        _;\r\n    }\r\n\r\n    //set a supervisor for the credibility and reputation mechanisms\r\n    function setCredibilitySupervisor(address supervisor) public returns(address h){\r\n        credibilitySupervisor[supervisor]=true;\r\n        return supervisor;\r\n    }\r\n\r\n    //increment Fakes everytimes punish!=0\r\n    function setFakes(address supervised) public onlyCredibilitySupervisor(msg.sender) returns(uint x1){\r\n        fakes=getFakes(supervised)+1;\r\n        userFakes[supervised]=fakes;\r\n        return userFakes[supervised];\r\n    }\r\n    function getFakes(address supervised) public view returns (uint x1){\r\n        return userFakes[supervised];\r\n    }\r\n\r\n    //increment total in every credibility update\r\n    function setTotal(address supervised) public onlyCredibilitySupervisor(msg.sender) returns(uint x1){\r\n        total=getTotal(supervised)+1;\r\n        userTotal[supervised]=total;\r\n        return userTotal[supervised];\r\n    }\r\n    function getTotal(address supervised) public view returns (uint x1){\r\n        return userTotal[supervised];\r\n    }\r\n\r\n    //calculate Credibility Rating\r\n    function Credibility_rating(int punish,address supervised) public returns(uint b1){\r\n        if(punish==0){       \r\n            credibilRating[supervised]=100;\r\n        }\r\n        else{                \r\n            uint theFakes =userFakes[supervised]*100; \r\n            uint theTotal=userTotal[supervised]; \r\n            credibilRating[supervised]=100-theFakes/theTotal;  \r\n        }\r\n        if(credibilRating[supervised]>100){\r\n            credibilRating[supervised]=100;\r\n        }\r\n        else if(credibilRating[supervised]<0 || credibilRating[supervised]==0){\r\n            credibilRating[supervised]=1;\r\n        }\r\n        return credibilRating[supervised];\r\n    }\r\n\r\n    function getCredibilityRating(address supervised) public view returns (uint b1) {\r\n        return credibilRating[supervised];\r\n    }\r\n\r\n\r\n    //calculate user Credibility\r\n    function update_Credibility(address supervised) public onlyCredibilitySupervisor(msg.sender) returns(uint y){\r\n        uint w=6;\r\n        if(userCredibility[supervised]==0){\r\n            userCredibility[supervised]=50;//egine diorwthwsi\r\n        }\r\n        uint credibility=w*userCredibility[supervised]+(10-w)* credibilRating[supervised];\r\n        userCredibility[supervised]=credibility/10;\r\n        if(userCredibility[supervised]<1){\r\n            userCredibility[supervised]=1;\r\n        }\r\n        else if(userCredibility[supervised]>100){\r\n            userCredibility[supervised]=100;\r\n        }\r\n        return (userCredibility[supervised]);\r\n    }\r\n\r\n    function getCredibility(address supervised) public view returns (uint x) {\r\n        return userCredibility[supervised] ;\r\n    }\r\n\r\n    //calculate service Reputation Score\r\n    function update_Reputation(address supervised,uint rating) public onlyCredibilitySupervisor(msg.sender) returns(uint t){\r\n        ReputationScore=(100-userCredibility[supervised])*ReputationScore+userCredibility[supervised]*rating;\r\n        ReputationScore=ReputationScore/100;\r\n       if(ReputationScore<1){\r\n            ReputationScore=1;\r\n        }\r\n        else if(ReputationScore>100){\r\n            ReputationScore=100;\r\n        }\r\n        return ReputationScore;\r\n    } \r\n\r\n    function getReputationScore() public view returns (uint x) {\r\n        return ReputationScore ;\r\n    }\r\n\r\n\r\n}",
  "sourcePath": "C:\\Users\\super\\Desktop\\feed4cloudProjects\\feed4cloud_weight_6\\contracts\\RatingsAndComposition.sol",
  "compiler": {
    "name": "solc",
    "version": "0.8.18+commit.87f61d96.Emscripten.clang"
  },
  "schemaVersion": "3.4.14",
  "updatedAt": "2023-08-09T06:56:44.392Z",
  "networkType": "ethereum",
  "devdoc": {
    "kind": "dev",
    "methods": {},
    "version": 1
  },
  "userdoc": {
    "kind": "user",
    "methods": {},
    "version": 1
  }
}